0100050000382763500015510/05/201110/05/2011N0500000117
020000001X10/05/2011GRANDE EMPRESA LTD                                                                                                                
030000002000000500003130000000000001500000001Lancamento de teste: UM DEBITO PARA UM CREDITO.                                                                                                                                                                                                                                                                                                                                                                                                                                                                                 0005000                                                                                                    
020000003V10/05/2011GRANDE EMPRESA LTD                                                                                                                
030000004000000500000000000000000001000000001Lancamento de teste VARIOS DEBITOS PARA VARIOS CREDITOS: debito 1                                                                                                                                                                                                                                                                                                                                                                                                                                                               0005000                                                                                                    
030000005000000500000000000000000002000000001Lancamento de teste VARIOS DEBITOS PARA VARIOS CREDITOS: debito 2                                                                                                                                                                                                                                                                                                                                                                                                                                                               0005000                                                                                                    
030000006000000000003130000000000001000000001Lancamento de teste VARIOS DEBITOS PARA VARIOS CREDITOS: credito 1                                                                                                                                                                                                                                                                                                                                                                                                                                                              0005000                                                                                                    
030000007000000000003130000000000001000000001Lancamento de teste VARIOS DEBITOS PARA VARIOS CREDITOS: credito 2                                                                                                                                                                                                                                                                                                                                                                                                                                                              0005000                                                                                                    
030000008000000000003130000000000001000000001Lancamento de teste VARIOS DEBITOS PARA VARIOS CREDITOS: credito 3                                                                                                                                                                                                                                                                                                                                                                                                                                                              0005000                                                                                                    
020000009D10/05/2011GRANDE EMPRESA LTD                                                                                                                
030000010000000500000000000000000009000000001Lancamento de teste UM DEBITO PARA VARIOS CREDITOS: debito                                                                                                                                                                                                                                                                                                                                                                                                                                                                      0005000                                                                                                    
030000011000000000003130000000000003000000001Lancamento de teste UM DEBITO PARA VARIOS CREDITOS: credito 1                                                                                                                                                                                                                                                                                                                                                                                                                                                                   0005000                                                                                                    
030000012000000000003130000000000003000000001Lancamento de teste UM DEBITO PARA VARIOS CREDITOS: credito 2                                                                                                                                                                                                                                                                                                                                                                                                                                                                   0005000                                                                                                    
030000013000000000003130000000000003000000001Lancamento de teste UM DEBITO PARA VARIOS CREDITOS: credito 3                                                                                                                                                                                                                                                                                                                                                                                                                                                                   0005000                                                                                                    
020000014C10/05/2011GRANDE EMPRESA LTD                                                                                                                
030000015000000000003130000000000010000000001Lancamento de teste UM CREDITO PARA VARIOS DEBITOS: credito                                                                                                                                                                                                                                                                                                                                                                                                                                                                     0005000                                                                                                    
030000016000000500000000000000000002000000001Lancamento de teste UM CREDITO PARA VARIOS DEBITOS: debito 1                                                                                                                                                                                                                                                                                                                                                                                                                                                                    0005000                                                                                                    
030000017000000500000000000000000002000000001Lancamento de teste UM CREDITO PARA VARIOS DEBITOS: debito 2                                                                                                                                                                                                                                                                                                                                                                                                                                                                    0005000                                                                                                    
030000018000000500000000000000000006000000001Lancamento de teste UM CREDITO PARA VARIOS DEBITOS: debito 3                                                                                                                                                                                                                                                                                                                                                                                                                                                                    0005000                                                                                                    
9999999999999999999999999999999999999999999999999999999999999999999999999999999999999999999999999999
